{
  "contractName": "Polling_System",
  "abi": [
    {
      "inputs": [],
      "payable": false,
      "stateMutability": "nonpayable",
      "type": "constructor"
    },
    {
      "constant": true,
      "inputs": [
        {
          "internalType": "uint256",
          "name": "",
          "type": "uint256"
        }
      ],
      "name": "List_of_Polls",
      "outputs": [
        {
          "internalType": "uint256",
          "name": "set_time",
          "type": "uint256"
        },
        {
          "internalType": "uint256",
          "name": "created_time",
          "type": "uint256"
        },
        {
          "internalType": "bool",
          "name": "is_active",
          "type": "bool"
        },
        {
          "internalType": "string",
          "name": "question",
          "type": "string"
        },
        {
          "internalType": "string",
          "name": "choice1",
          "type": "string"
        },
        {
          "internalType": "uint256",
          "name": "choice1_count",
          "type": "uint256"
        },
        {
          "internalType": "string",
          "name": "choice2",
          "type": "string"
        },
        {
          "internalType": "uint256",
          "name": "choice2_count",
          "type": "uint256"
        },
        {
          "internalType": "string",
          "name": "choice3",
          "type": "string"
        },
        {
          "internalType": "uint256",
          "name": "choice3_count",
          "type": "uint256"
        }
      ],
      "payable": false,
      "stateMutability": "view",
      "type": "function"
    },
    {
      "constant": true,
      "inputs": [
        {
          "internalType": "address",
          "name": "",
          "type": "address"
        }
      ],
      "name": "Users",
      "outputs": [
        {
          "internalType": "bool",
          "name": "voted",
          "type": "bool"
        }
      ],
      "payable": false,
      "stateMutability": "view",
      "type": "function"
    },
    {
      "constant": true,
      "inputs": [],
      "name": "number_of_polls",
      "outputs": [
        {
          "internalType": "uint256",
          "name": "",
          "type": "uint256"
        }
      ],
      "payable": false,
      "stateMutability": "view",
      "type": "function"
    },
    {
      "constant": true,
      "inputs": [],
      "name": "number_of_users",
      "outputs": [
        {
          "internalType": "uint256",
          "name": "",
          "type": "uint256"
        }
      ],
      "payable": false,
      "stateMutability": "view",
      "type": "function"
    },
    {
      "constant": true,
      "inputs": [],
      "name": "owner",
      "outputs": [
        {
          "internalType": "address",
          "name": "",
          "type": "address"
        }
      ],
      "payable": false,
      "stateMutability": "view",
      "type": "function"
    },
    {
      "constant": true,
      "inputs": [
        {
          "internalType": "uint256",
          "name": "_select_poll",
          "type": "uint256"
        }
      ],
      "name": "displayWinner",
      "outputs": [
        {
          "internalType": "string",
          "name": "",
          "type": "string"
        }
      ],
      "payable": false,
      "stateMutability": "view",
      "type": "function"
    },
    {
      "constant": false,
      "inputs": [
        {
          "internalType": "uint256",
          "name": "_select_poll",
          "type": "uint256"
        }
      ],
      "name": "checkpoll",
      "outputs": [
        {
          "internalType": "bool",
          "name": "",
          "type": "bool"
        }
      ],
      "payable": false,
      "stateMutability": "nonpayable",
      "type": "function"
    },
    {
      "constant": false,
      "inputs": [
        {
          "internalType": "uint256",
          "name": "_set_time",
          "type": "uint256"
        },
        {
          "internalType": "string",
          "name": "_question",
          "type": "string"
        },
        {
          "internalType": "string",
          "name": "_choice1",
          "type": "string"
        },
        {
          "internalType": "string",
          "name": "_choice2",
          "type": "string"
        },
        {
          "internalType": "string",
          "name": "_choice3",
          "type": "string"
        }
      ],
      "name": "createPoll",
      "outputs": [],
      "payable": false,
      "stateMutability": "nonpayable",
      "type": "function"
    },
    {
      "constant": false,
      "inputs": [
        {
          "internalType": "uint256",
          "name": "_select_poll",
          "type": "uint256"
        },
        {
          "internalType": "uint256",
          "name": "_select_choice",
          "type": "uint256"
        }
      ],
      "name": "addVote",
      "outputs": [],
      "payable": false,
      "stateMutability": "nonpayable",
      "type": "function"
    }
  ],
  "bytecode": "0x608060405260008055600060015534801561001957600080fd5b5033600260006101000a81548173ffffffffffffffffffffffffffffffffffffffff021916908373ffffffffffffffffffffffffffffffffffffffff1602179055506000600360003373ffffffffffffffffffffffffffffffffffffffff1673ffffffffffffffffffffffffffffffffffffffff16815260200190815260200160002060000160006101000a81548160ff02191690831515021790555060018060008282540192505081905550611c2e806100d56000396000f3fe608060405234801561001057600080fd5b50600436106100925760003560e01c80635aac39e7116100665780635aac39e7146105765780638da5cb5b1461061d57806399b956a014610667578063ac219273146106c3578063fcca991b1461070957610092565b80624db6ae146100975780630617e45f146102b0578063228211321461053a57806328dd646314610558575b600080fd5b6100c3600480360360208110156100ad57600080fd5b8101908080359060200190929190505050610741565b604051808b81526020018a8152602001891515151581526020018060200180602001888152602001806020018781526020018060200186815260200185810385528c818151815260200191508051906020019080838360005b8381101561013757808201518184015260208101905061011c565b50505050905090810190601f1680156101645780820380516001836020036101000a031916815260200191505b5085810384528b818151815260200191508051906020019080838360005b8381101561019d578082015181840152602081019050610182565b50505050905090810190601f1680156101ca5780820380516001836020036101000a031916815260200191505b50858103835289818151815260200191508051906020019080838360005b838110156102035780820151818401526020810190506101e8565b50505050905090810190601f1680156102305780820380516001836020036101000a031916815260200191505b50858103825287818151815260200191508051906020019080838360005b8381101561026957808201518184015260208101905061024e565b50505050905090810190601f1680156102965780820380516001836020036101000a031916815260200191505b509e50505050505050505050505050505060405180910390f35b610538600480360360a08110156102c657600080fd5b8101908080359060200190929190803590602001906401000000008111156102ed57600080fd5b8201836020820111156102ff57600080fd5b8035906020019184600183028401116401000000008311171561032157600080fd5b91908080601f016020809104026020016040519081016040528093929190818152602001838380828437600081840152601f19601f8201169050808301925050505050505091929192908035906020019064010000000081111561038457600080fd5b82018360208201111561039657600080fd5b803590602001918460018302840111640100000000831117156103b857600080fd5b91908080601f016020809104026020016040519081016040528093929190818152602001838380828437600081840152601f19601f8201169050808301925050505050505091929192908035906020019064010000000081111561041b57600080fd5b82018360208201111561042d57600080fd5b8035906020019184600183028401116401000000008311171561044f57600080fd5b91908080601f016020809104026020016040519081016040528093929190818152602001838380828437600081840152601f19601f820116905080830192505050505050509192919290803590602001906401000000008111156104b257600080fd5b8201836020820111156104c457600080fd5b803590602001918460018302840111640100000000831117156104e657600080fd5b91908080601f016020809104026020016040519081016040528093929190818152602001838380828437600081840152601f19601f820116905080830192505050505050509192919290505050610a02565b005b610542610bb0565b6040518082815260200191505060405180910390f35b610560610bb6565b6040518082815260200191505060405180910390f35b6105a26004803603602081101561058c57600080fd5b8101908080359060200190929190505050610bbc565b6040518080602001828103825283818151815260200191508051906020019080838360005b838110156105e25780820151818401526020810190506105c7565b50505050905090810190601f16801561060f5780820380516001836020036101000a031916815260200191505b509250505060405180910390f35b610625611598565b604051808273ffffffffffffffffffffffffffffffffffffffff1673ffffffffffffffffffffffffffffffffffffffff16815260200191505060405180910390f35b6106a96004803603602081101561067d57600080fd5b81019080803573ffffffffffffffffffffffffffffffffffffffff1690602001909291905050506115be565b604051808215151515815260200191505060405180910390f35b6106ef600480360360208110156106d957600080fd5b81019080803590602001909291905050506115e9565b604051808215151515815260200191505060405180910390f35b61073f6004803603604081101561071f57600080fd5b81019080803590602001909291908035906020019092919050505061167b565b005b60046020528060005260406000206000915090508060000154908060010154908060020160009054906101000a900460ff1690806003018054600181600116156101000203166002900480601f01602080910402602001604051908101604052809291908181526020018280546001816001161561010002031660029004801561080c5780601f106107e15761010080835404028352916020019161080c565b820191906000526020600020905b8154815290600101906020018083116107ef57829003601f168201915b505050505090806004018054600181600116156101000203166002900480601f0160208091040260200160405190810160405280929190818152602001828054600181600116156101000203166002900480156108aa5780601f1061087f576101008083540402835291602001916108aa565b820191906000526020600020905b81548152906001019060200180831161088d57829003601f168201915b505050505090806005015490806006018054600181600116156101000203166002900480601f01602080910402602001604051908101604052809291908181526020018280546001816001161561010002031660029004801561094e5780601f106109235761010080835404028352916020019161094e565b820191906000526020600020905b81548152906001019060200180831161093157829003601f168201915b505050505090806007015490806008018054600181600116156101000203166002900480601f0160208091040260200160405190810160405280929190818152602001828054600181600116156101000203166002900480156109f25780601f106109c7576101008083540402835291602001916109f2565b820191906000526020600020905b8154815290600101906020018083116109d557829003601f168201915b505050505090806009015490508a565b84600460006001600054018152602001908152602001600020600001819055504260046000600160005401815260200190815260200160002060010181905550600160046000600160005401815260200190815260200160002060020160006101000a81548160ff021916908315150217905550836004600060016000540181526020019081526020016000206003019080519060200190610aa5929190611944565b50826004600060016000540181526020019081526020016000206004019080519060200190610ad5929190611944565b50600060046000600160005401815260200190815260200160002060050181905550816004600060016000540181526020019081526020016000206006019080519060200190610b26929190611944565b50600060046000600160005401815260200190815260200160002060070181905550806004600060016000540181526020019081526020016000206008019080519060200190610b77929190611944565b50600060046000600160005401815260200190815260200160002060090181905550600160008082825401925050819055505050505050565b60015481565b60005481565b6060600054821115610c19576040517f08c379a0000000000000000000000000000000000000000000000000000000008152600401808060200182810382526035815260200180611b486035913960400191505060405180910390fd5b6000809050606060006004600086815260200190815260200160002060050154141580610c5d57506000600460008681526020019081526020016000206007015414155b80610c7f57506000600460008681526020019081526020016000206009015414155b15611542576004600085815260200190815260200160002060070154600460008681526020019081526020016000206005015414158015610cec57506004600085815260200190815260200160002060090154600460008681526020019081526020016000206005015414155b8015610d2457506004600085815260200190815260200160002060070154600460008681526020019081526020016000206009015414155b15610fed5781600460008681526020019081526020016000206005015410610e115760046000858152602001908152602001600020600501549150600460008581526020019081526020016000206004018054600181600116156101000203166002900480601f016020809104026020016040519081016040528092919081815260200182805460018160011615610100020316600290048015610e095780601f10610dde57610100808354040283529160200191610e09565b820191906000526020600020905b815481529060010190602001808311610dec57829003601f168201915b505050505090505b8160046000868152602001908152602001600020600701541115610efa5760046000858152602001908152602001600020600701549150600460008581526020019081526020016000206006018054600181600116156101000203166002900480601f016020809104026020016040519081016040528092919081815260200182805460018160011615610100020316600290048015610ef25780601f10610ec757610100808354040283529160200191610ef2565b820191906000526020600020905b815481529060010190602001808311610ed557829003601f168201915b505050505090505b8160046000868152602001908152602001600020600901541115610fe35760046000858152602001908152602001600020600901549150600460008581526020019081526020016000206008018054600181600116156101000203166002900480601f016020809104026020016040519081016040528092919081815260200182805460018160011615610100020316600290048015610fdb5780601f10610fb057610100808354040283529160200191610fdb565b820191906000526020600020905b815481529060010190602001808311610fbe57829003601f168201915b505050505090505b8092505050611593565b6004600085815260200190815260200160002060070154600460008681526020019081526020016000206005015414801561105457506004600085815260200190815260200160002060090154600460008681526020019081526020016000206005015414155b15611199576004600085815260200190815260200160002060090154600460008681526020019081526020016000206005015411156110de576040517f08c379a0000000000000000000000000000000000000000000000000000000008152600401808060200182810382526048815260200180611bb26048913960600191505060405180910390fd5b600460008581526020019081526020016000206008018054600181600116156101000203166002900480601f0160208091040260200160405190810160405280929190818152602001828054600181600116156101000203166002900480156111885780601f1061115d57610100808354040283529160200191611188565b820191906000526020600020905b81548152906001019060200180831161116b57829003601f168201915b505050505090508092505050611593565b6004600085815260200190815260200160002060070154600460008681526020019081526020016000206009015414801561120057506004600085815260200190815260200160002060090154600460008681526020019081526020016000206005015414155b156113455760046000858152602001908152602001600020600501546004600086815260200190815260200160002060090154111561128a576040517f08c379a0000000000000000000000000000000000000000000000000000000008152600401808060200182810382526048815260200180611a8e6048913960600191505060405180910390fd5b600460008581526020019081526020016000206004018054600181600116156101000203166002900480601f0160208091040260200160405190810160405280929190818152602001828054600181600116156101000203166002900480156113345780601f1061130957610100808354040283529160200191611334565b820191906000526020600020905b81548152906001019060200180831161131757829003601f168201915b505050505090508092505050611593565b600460008581526020019081526020016000206009015460046000868152602001908152602001600020600501541480156113ac57506004600085815260200190815260200160002060070154600460008681526020019081526020016000206005015414155b156114f157600460008581526020019081526020016000206007015460046000868152602001908152602001600020600501541115611436576040517f08c379a0000000000000000000000000000000000000000000000000000000008152600401808060200182810382526048815260200180611b006048913960600191505060405180910390fd5b600460008581526020019081526020016000206006018054600181600116156101000203166002900480601f0160208091040260200160405190810160405280929190818152602001828054600181600116156101000203166002900480156114e05780601f106114b5576101008083540402835291602001916114e0565b820191906000526020600020905b8154815290600101906020018083116114c357829003601f168201915b505050505090508092505050611593565b6040517f08c379a000000000000000000000000000000000000000000000000000000000815260040180806020018281038252604b815260200180611a18604b913960600191505060405180910390fd5b6040517f08c379a000000000000000000000000000000000000000000000000000000000815260040180806020018281038252602a815260200180611ad6602a913960400191505060405180910390fd5b919050565b600260009054906101000a900473ffffffffffffffffffffffffffffffffffffffff1681565b60036020528060005260406000206000915090508060000160009054906101000a900460ff16905081565b6000600460008381526020019081526020016000206001015460046000848152602001908152602001600020600001540142106116505760006004600084815260200190815260200160002060020160006101000a81548160ff0219169083151502179055505b6004600083815260200190815260200160002060020160009054906101000a900460ff169050919050565b60011515611688836115e9565b1515146116e0576040517f08c379a0000000000000000000000000000000000000000000000000000000008152600401808060200182810382526035815260200180611b7d6035913960400191505060405180910390fd5b600360003373ffffffffffffffffffffffffffffffffffffffff1673ffffffffffffffffffffffffffffffffffffffff16815260200190815260200160002060000160009054906101000a900460ff16156117a3576040517f08c379a00000000000000000000000000000000000000000000000000000000081526004018080602001828103825260168152602001807f596f75206861766520616c726561647920766f7465640000000000000000000081525060200191505060405180910390fd5b60038111156117fd576040517f08c379a000000000000000000000000000000000000000000000000000000000815260040180806020018281038252602e8152602001806119ea602e913960400191505060405180910390fd5b600054821115611858576040517f08c379a000000000000000000000000000000000000000000000000000000000815260040180806020018281038252602b815260200180611a63602b913960400191505060405180910390fd5b600181141561188757600160046000848152602001908152602001600020600501600082825401925050819055505b60028114156118b657600160046000848152602001908152602001600020600701600082825401925050819055505b60038114156118e557600160046000848152602001908152602001600020600901600082825401925050819055505b6001600360003373ffffffffffffffffffffffffffffffffffffffff1673ffffffffffffffffffffffffffffffffffffffff16815260200190815260200160002060000160006101000a81548160ff0219169083151502179055505050565b828054600181600116156101000203166002900490600052602060002090601f016020900481019282601f1061198557805160ff19168380011785556119b3565b828001600101855582156119b3579182015b828111156119b2578251825591602001919060010190611997565b5b5090506119c091906119c4565b5090565b6119e691905b808211156119e25760008160009055506001016119ca565b5090565b9056fe506c656173652063686f6f736520612063686f696365206265747765656e206e756d62657273203120616e6420335468657265206973206120746965206265747765656e2077696e696e672043686f6963657320312c203220616e6420332c20726571756972656420746f20627265616b2074686520746965506c656173652063686f6f7365206120636f727265637420506f6c6c206e756d62657220746f20766f74655468657265206973206120746965206265747765656e2077696e696e672043686f69636573203220616e6420332c20726571756972656420746f20627265616b207468652074696554686572652068617665206265656e206e6f20766f746573206f6e2074686520676976656e20706f6c6c5468657265206973206120746965206265747765656e2077696e696e672043686f69636573203120616e6420332c20726571756972656420746f20627265616b2074686520746965506c656173652063686f6f7365206120636f727265637420506f6c6c206e756d62657220746f20446973706c61792077696e6e6572506f6c6c2068617320616c726561647920657870697265642c2073656c65637420616e6f7468657220706f6c6c20746f20766f74655468657265206973206120746965206265747765656e2077696e696e672043686f69636573203120616e6420322c20726571756972656420746f20627265616b2074686520746965a265627a7a72315820828d40f1b7c23462a0d9a85dd997791acd46b0e857cafca11c637969bb31213d64736f6c63430005100032",
  "source": "// SPDX-License-Identifier: GPL-3.0\n// SPDX-License-Identifier: GPL-3.0\npragma solidity ^0.5.0;\n\n// Smart contract for Polling System;\n\ncontract Polling_System {\n\n    uint256 public number_of_polls = 0;         // Total number of polls created;\n    uint256 public number_of_users = 0;         // Total number of users;\n//    uint256 public past;\n    address public owner;\n\n    mapping(address => User) public Users;\n    mapping(uint256 => Poll) public List_of_Polls;\n    \n    struct Poll {\n        uint256 set_time;\n        uint256 created_time;                       // Time the poll lasts\n        bool is_active;\n        string question;                        // Question for poll\n        string choice1;                         // Three choices with their count information\n        uint256 choice1_count;\n        string choice2;\n        uint256 choice2_count;\n        string choice3;\n        uint256 choice3_count;\n    }\n    \n    struct User {\n        bool voted;  // If true, that person already voted on a poll\n    }\n\n    // Initialize when the smart contract is deployed\n    \n    constructor() public {\n        owner = msg.sender;                     // Assign the owner rights to the person who deploys the contract\n        Users[msg.sender].voted = false;\n        number_of_users +=1;\n    }\n    \n\n    // Interface for displayWinner\n    function displayWinner(uint256 _select_poll) public view returns (string memory)  {\n\n        require(_select_poll <= number_of_polls, \"Please choose a correct Poll number to Display winner\");\n        uint256 max_count = 0;\n        string memory max_string;\n\n        if(List_of_Polls[_select_poll].choice1_count!= 0 || List_of_Polls[_select_poll].choice2_count!= 0 || List_of_Polls[_select_poll].choice3_count!= 0 ) {\n            \n            if(List_of_Polls[_select_poll].choice1_count != List_of_Polls[_select_poll].choice2_count && List_of_Polls[_select_poll].choice1_count != List_of_Polls[_select_poll].choice3_count && List_of_Polls[_select_poll].choice3_count != List_of_Polls[_select_poll].choice2_count ) {\n\n                if(List_of_Polls[_select_poll].choice1_count >= max_count) {    // by default we set our winner to first choice\n                    max_count = List_of_Polls[_select_poll].choice1_count;\n                    max_string = List_of_Polls[_select_poll].choice1;\n                }\n                if(List_of_Polls[_select_poll].choice2_count > max_count) {     // Conditions to see if we have other winners\n                    max_count = List_of_Polls[_select_poll].choice2_count;\n                    max_string = List_of_Polls[_select_poll].choice2;\n                }\n                if(List_of_Polls[_select_poll].choice3_count > max_count) {\n                    max_count = List_of_Polls[_select_poll].choice3_count;\n                    max_string = List_of_Polls[_select_poll].choice3;\n                }\n                return max_string;\n\n            }\n\n            //  A = B !=C\n            else if (List_of_Polls[_select_poll].choice1_count == List_of_Polls[_select_poll].choice2_count && List_of_Polls[_select_poll].choice1_count != List_of_Polls[_select_poll].choice3_count) {\n                if(List_of_Polls[_select_poll].choice1_count > List_of_Polls[_select_poll].choice3_count) {\n                    revert(\"There is a tie between wining Choices 1 and 2, required to break the tie\");\n                }\n                else {\n                   max_string = List_of_Polls[_select_poll].choice3;\n                   return max_string; \n                }\n            }\n\n            // B = C != A\n            else if (List_of_Polls[_select_poll].choice3_count == List_of_Polls[_select_poll].choice2_count && List_of_Polls[_select_poll].choice1_count != List_of_Polls[_select_poll].choice3_count) {\n                if(List_of_Polls[_select_poll].choice3_count > List_of_Polls[_select_poll].choice1_count) {\n                    revert(\"There is a tie between wining Choices 2 and 3, required to break the tie\");\n                }\n                else {\n                   max_string = List_of_Polls[_select_poll].choice1;\n                   return max_string; \n                }\n            }\n            \n            // A = C != B\n            else if (List_of_Polls[_select_poll].choice1_count == List_of_Polls[_select_poll].choice3_count && List_of_Polls[_select_poll].choice1_count != List_of_Polls[_select_poll].choice2_count) {\n                if(List_of_Polls[_select_poll].choice1_count > List_of_Polls[_select_poll].choice2_count) {\n                    revert(\"There is a tie between wining Choices 1 and 3, required to break the tie\");\n                }\n                else {\n                   max_string = List_of_Polls[_select_poll].choice2;\n                   return max_string; \n                }\n            }\n\n            else {\n                revert(\"There is a tie between wining Choices 1, 2 and 3, required to break the tie\");\n            }\n        }\n        else{\n            revert(\"There have been no votes on the given poll\");\n        }\n\n    }\n\n    function checkpoll(uint256 _select_poll) public returns (bool) {\n        if (block.timestamp >= (List_of_Polls[_select_poll].set_time + List_of_Polls[_select_poll].created_time)) {\n            List_of_Polls[_select_poll].is_active = false;\n        }\n        return List_of_Polls[_select_poll].is_active;\n    }\n\n    // Interface for creating a poll\n\n    function createPoll(uint256 _set_time, string memory _question, string memory _choice1,  string memory _choice2,  string memory _choice3 ) public {\n        List_of_Polls[number_of_polls + 1].set_time =  _set_time;\n        List_of_Polls[number_of_polls + 1].created_time = block.timestamp;\n        List_of_Polls[number_of_polls + 1].is_active = true;\n        List_of_Polls[number_of_polls + 1].question = _question;\n        List_of_Polls[number_of_polls + 1].choice1 = _choice1;\n        List_of_Polls[number_of_polls + 1].choice1_count = 0;\n        List_of_Polls[number_of_polls + 1].choice2 = _choice2;\n        List_of_Polls[number_of_polls + 1].choice2_count = 0;\n        List_of_Polls[number_of_polls + 1].choice3 = _choice3;\n        List_of_Polls[number_of_polls + 1].choice3_count = 0;\n        number_of_polls +=1;\n\n    }\n\n    // Interface for adding vote on a poll\n\n    function addVote(uint256 _select_poll, uint256 _select_choice) public {\n        \n        require(checkpoll(_select_poll) == true, \"Poll has already expired, select another poll to vote\");\n        require(!Users[msg.sender].voted, \"You have already voted\");\n        require(_select_choice <= 3, \"Please choose a choice between numbers 1 and 3\");\n        require(_select_poll <= number_of_polls, \"Please choose a correct Poll number to vote\");\n        if(_select_choice == 1) {\n            List_of_Polls[_select_poll].choice1_count += 1;\n        }\n        if(_select_choice == 2) {\n            List_of_Polls[_select_poll].choice2_count += 1;\n        }\n        if(_select_choice == 3) {\n            List_of_Polls[_select_poll].choice3_count += 1;\n        }\n\n        Users[msg.sender].voted = true;\n\n    }\n\n    \n}",
  "sourcePath": "/home/cmpsc447/Desktop/Polling_system/contracts/Polling_System.sol",
  "compiler": {
    "name": "solc",
    "version": "0.5.16+commit.9c3226ce.Emscripten.clang"
  },
  "schemaVersion": "3.4.7",
  "updatedAt": "2022-05-16T02:29:17.009Z",
  "networkType": "ethereum",
  "devdoc": {
    "methods": {}
  },
  "userdoc": {
    "methods": {}
  }
}